{
  "transactions": [
    {
      "hash": "0x4e64c889b40171fd0298bbbbcbc90f2ad391b220264f79c4c5d5e300bf262dd7",
      "transactionType": "CALL",
      "contractName": null,
      "contractAddress": "0x1adabe4941e0f662976dc94b9c7e2050b5445664",
      "function": "setPeer(uint32,bytes32)",
      "arguments": [
        "30101",
        "0x00000000000000000000000092e092b5e18aeb5b6c951f0ccb20f49f97081757"
      ],
      "transaction": {
        "from": "0xf39fd6e51aad88f6f4ce6ab8827279cfffb92266",
        "to": "0x1adabe4941e0f662976dc94b9c7e2050b5445664",
        "gas": "0x10bf1",
        "value": "0x0",
        "input": "0x3400288b000000000000000000000000000000000000000000000000000000000000759500000000000000000000000092e092b5e18aeb5b6c951f0ccb20f49f97081757",
        "nonce": "0x3867",
        "chainId": "0xa4b1"
      },
      "additionalContracts": [],
      "isFixedGasLimit": false
    },
    {
      "hash": "0x67f0a3bdaa7fb7f265f243843f8bb0dddaff495c209442fc01c8daae9d520178",
      "transactionType": "CALL",
      "contractName": null,
      "contractAddress": "0x1a44076050125825900e736c501f859c50fe728c",
      "function": "setReceiveLibrary(address,uint32,address,uint256)",
      "arguments": [
        "0x1aDABe4941e0f662976DC94B9C7e2050b5445664",
        "30101",
        "0x7B9E184e07a6EE1aC23eAe0fe8D6Be2f663f05e6",
        "0"
      ],
      "transaction": {
        "from": "0xf39fd6e51aad88f6f4ce6ab8827279cfffb92266",
        "to": "0x1a44076050125825900e736c501f859c50fe728c",
        "gas": "0x1471e",
        "value": "0x0",
        "input": "0x6a14d7150000000000000000000000001adabe4941e0f662976dc94b9c7e2050b544566400000000000000000000000000000000000000000000000000000000000075950000000000000000000000007b9e184e07a6ee1ac23eae0fe8d6be2f663f05e60000000000000000000000000000000000000000000000000000000000000000",
        "nonce": "0x3868",
        "chainId": "0xa4b1"
      },
      "additionalContracts": [],
      "isFixedGasLimit": false
    },
    {
      "hash": "0x51904dea8959cb775abb3805c3b438b8ca48e9c147cf37ef7a58b88f3dfeb98c",
      "transactionType": "CALL",
      "contractName": null,
      "contractAddress": "0x1a44076050125825900e736c501f859c50fe728c",
      "function": "setConfig(address,address,(uint32,uint32,bytes)[])",
      "arguments": [
        "0x1aDABe4941e0f662976DC94B9C7e2050b5445664",
        "0x975bcD720be66659e3EB3C0e4F1866a3020E493A",
        "[(30101, 2, 0x0000000000000000000000000000000000000000000000000000000000000020000000000000000000000000000000000000000000000000000000000000002000000000000000000000000000000000000000000000000000000000000000020000000000000000000000000000000000000000000000000000000000000000000000000000000000000000000000000000000000000000000000000000000000000000000000000000000000000000000000000000000000000000000000c0000000000000000000000000000000000000000000000000000000000000012000000000000000000000000000000000000000000000000000000000000000020000000000000000000000002f55c492897526677c5b68fb199ea31e2c126416000000000000000000000000a7b5189bca84cd304d8553977c7c614329750d990000000000000000000000000000000000000000000000000000000000000000)]"
      ],
      "transaction": {
        "from": "0xf39fd6e51aad88f6f4ce6ab8827279cfffb92266",
        "to": "0x1a44076050125825900e736c501f859c50fe728c",
        "gas": "0x2cadc",
        "value": "0x0",
        "input": "0x6dbd9f900000000000000000000000001adabe4941e0f662976dc94b9c7e2050b5445664000000000000000000000000975bcd720be66659e3eb3c0e4f1866a3020e493a00000000000000000000000000000000000000000000000000000000000000600000000000000000000000000000000000000000000000000000000000000001000000000000000000000000000000000000000000000000000000000000002000000000000000000000000000000000000000000000000000000000000075950000000000000000000000000000000000000000000000000000000000000002000000000000000000000000000000000000000000000000000000000000006000000000000000000000000000000000000000000000000000000000000001600000000000000000000000000000000000000000000000000000000000000020000000000000000000000000000000000000000000000000000000000000002000000000000000000000000000000000000000000000000000000000000000020000000000000000000000000000000000000000000000000000000000000000000000000000000000000000000000000000000000000000000000000000000000000000000000000000000000000000000000000000000000000000000000c0000000000000000000000000000000000000000000000000000000000000012000000000000000000000000000000000000000000000000000000000000000020000000000000000000000002f55c492897526677c5b68fb199ea31e2c126416000000000000000000000000a7b5189bca84cd304d8553977c7c614329750d990000000000000000000000000000000000000000000000000000000000000000",
        "nonce": "0x3869",
        "chainId": "0xa4b1"
      },
      "additionalContracts": [],
      "isFixedGasLimit": false
    },
    {
      "hash": "0x41faadc627b4cfe2b5102b90ed66b3243cc0f9572a34fc4ee92875b8944b8fed",
      "transactionType": "CALL",
      "contractName": null,
      "contractAddress": "0x1a44076050125825900e736c501f859c50fe728c",
      "function": "setConfig(address,address,(uint32,uint32,bytes)[])",
      "arguments": [
        "0x1aDABe4941e0f662976DC94B9C7e2050b5445664",
        "0x7B9E184e07a6EE1aC23eAe0fe8D6Be2f663f05e6",
        "[(30101, 2, 0x0000000000000000000000000000000000000000000000000000000000000020000000000000000000000000000000000000000000000000000000000000002000000000000000000000000000000000000000000000000000000000000000020000000000000000000000000000000000000000000000000000000000000000000000000000000000000000000000000000000000000000000000000000000000000000000000000000000000000000000000000000000000000000000000c0000000000000000000000000000000000000000000000000000000000000012000000000000000000000000000000000000000000000000000000000000000020000000000000000000000002f55c492897526677c5b68fb199ea31e2c126416000000000000000000000000a7b5189bca84cd304d8553977c7c614329750d990000000000000000000000000000000000000000000000000000000000000000)]"
      ],
      "transaction": {
        "from": "0xf39fd6e51aad88f6f4ce6ab8827279cfffb92266",
        "to": "0x1a44076050125825900e736c501f859c50fe728c",
        "gas": "0x2c990",
        "value": "0x0",
        "input": "0x6dbd9f900000000000000000000000001adabe4941e0f662976dc94b9c7e2050b54456640000000000000000000000007b9e184e07a6ee1ac23eae0fe8d6be2f663f05e600000000000000000000000000000000000000000000000000000000000000600000000000000000000000000000000000000000000000000000000000000001000000000000000000000000000000000000000000000000000000000000002000000000000000000000000000000000000000000000000000000000000075950000000000000000000000000000000000000000000000000000000000000002000000000000000000000000000000000000000000000000000000000000006000000000000000000000000000000000000000000000000000000000000001600000000000000000000000000000000000000000000000000000000000000020000000000000000000000000000000000000000000000000000000000000002000000000000000000000000000000000000000000000000000000000000000020000000000000000000000000000000000000000000000000000000000000000000000000000000000000000000000000000000000000000000000000000000000000000000000000000000000000000000000000000000000000000000000c0000000000000000000000000000000000000000000000000000000000000012000000000000000000000000000000000000000000000000000000000000000020000000000000000000000002f55c492897526677c5b68fb199ea31e2c126416000000000000000000000000a7b5189bca84cd304d8553977c7c614329750d990000000000000000000000000000000000000000000000000000000000000000",
        "nonce": "0x386a",
        "chainId": "0xa4b1"
      },
      "additionalContracts": [],
      "isFixedGasLimit": false
    },
    {
      "hash": "0xe79c18fc4a8a6e1faf11db0696a27ec46ac4e64a4dc1f393947fbf17f1961f37",
      "transactionType": "CALL",
      "contractName": null,
      "contractAddress": "0x1adabe4941e0f662976dc94b9c7e2050b5445664",
      "function": "setDelegate(address)",
      "arguments": [
        "0xCb343bF07E72548349f506593336b6CB698Ad6dA"
      ],
      "transaction": {
        "from": "0xf39fd6e51aad88f6f4ce6ab8827279cfffb92266",
        "to": "0x1adabe4941e0f662976dc94b9c7e2050b5445664",
        "gas": "0xc593",
        "value": "0x0",
        "input": "0xca5eb5e1000000000000000000000000cb343bf07e72548349f506593336b6cb698ad6da",
        "nonce": "0x386b",
        "chainId": "0xa4b1"
      },
      "additionalContracts": [],
      "isFixedGasLimit": false
    }
  ],
  "receipts": [
    {
      "status": "0x1",
      "cumulativeGasUsed": "0xcc9e",
      "logs": [
        {
          "address": "0x1adabe4941e0f662976dc94b9c7e2050b5445664",
          "topics": [
            "0x238399d427b947898edb290f5ff0f9109849b1c3ba196a42e35f00c50a54b98b"
          ],
          "data": "0x000000000000000000000000000000000000000000000000000000000000759500000000000000000000000092e092b5e18aeb5b6c951f0ccb20f49f97081757",
          "blockHash": "0x7ae3ee864a435b5842abfeacfe8bbe818def0bade83adfaed660335f6bacde54",
          "blockNumber": "0x1a860876",
          "blockTimestamp": "0x69c218f5",
          "transactionHash": "0x4e64c889b40171fd0298bbbbcbc90f2ad391b220264f79c4c5d5e300bf262dd7",
          "transactionIndex": "0x0",
          "logIndex": "0x0",
          "removed": false
        }
      ],
      "logsBloom": "0x00000000000000000000000000000000000000000000000000000000000000000000000000000000000000000000000000000000000000000800000000000000000000000000000000000000000000000000000000000000000000000000000000000000000000000000000000000000000000000000000000000000000000000000000000000000000020000000000000000000000000000000000000000000000000000000000000000000000000000000000000000000004002000000000000000000000000000000000004000000000000000000000000040000000000000000000000000000000000000000000000000000000000000000000000000000",
      "type": "0x2",
      "transactionHash": "0x4e64c889b40171fd0298bbbbcbc90f2ad391b220264f79c4c5d5e300bf262dd7",
      "transactionIndex": "0x0",
      "blockHash": "0x7ae3ee864a435b5842abfeacfe8bbe818def0bade83adfaed660335f6bacde54",
      "blockNumber": "0x1a860876",
      "gasUsed": "0xcc9e",
      "effectiveGasPrice": "0x3ae0d36e",
      "blobGasPrice": "0x1",
      "from": "0xf39fd6e51aad88f6f4ce6ab8827279cfffb92266",
      "to": "0x1adabe4941e0f662976dc94b9c7e2050b5445664",
      "contractAddress": null
    },
    {
      "status": "0x1",
      "cumulativeGasUsed": "0xfba1",
      "logs": [
        {
          "address": "0x1a44076050125825900e736c501f859c50fe728c",
          "topics": [
            "0xcd6f92f5ac6185a5acfa02c92090746cec64d777269cbcd0ed031e396657a1c2"
          ],
          "data": "0x0000000000000000000000001adabe4941e0f662976dc94b9c7e2050b544566400000000000000000000000000000000000000000000000000000000000075950000000000000000000000007b9e184e07a6ee1ac23eae0fe8d6be2f663f05e6",
          "blockHash": "0xc45e12983c8b23279cf3941e2a17e7c2debb0310100b5b2ffaa6f5083066b6ba",
          "blockNumber": "0x1a860877",
          "blockTimestamp": "0x69c218f5",
          "transactionHash": "0x67f0a3bdaa7fb7f265f243843f8bb0dddaff495c209442fc01c8daae9d520178",
          "transactionIndex": "0x0",
          "logIndex": "0x0",
          "removed": false
        },
        {
          "address": "0x1a44076050125825900e736c501f859c50fe728c",
          "topics": [
            "0x4e0a5bbfa0c11a64effb1ada324b5437a17272e1aed9320398715ef71bb20928"
          ],
          "data": "0x0000000000000000000000001adabe4941e0f662976dc94b9c7e2050b5445664000000000000000000000000000000000000000000000000000000000000759500000000000000000000000000000000000000000000000000000000000000000000000000000000000000000000000000000000000000000000000000000000",
          "blockHash": "0xc45e12983c8b23279cf3941e2a17e7c2debb0310100b5b2ffaa6f5083066b6ba",
          "blockNumber": "0x1a860877",
          "blockTimestamp": "0x69c218f5",
          "transactionHash": "0x67f0a3bdaa7fb7f265f243843f8bb0dddaff495c209442fc01c8daae9d520178",
          "transactionIndex": "0x0",
          "logIndex": "0x1",
          "removed": false
        }
      ],
      "logsBloom": "0x00000000000000000000020800000000000000000000000000000000001000020400000000000000000000000000000000000000000000000000000000000000000000000000000000000000000000000000000000800000000000000000000000000000000000000000000000000000000000000010000000000000000000100000000000000000000000000000000000000000000000000000000000000000000000000000000000000000000000000000000000000000000000000000000000000000000000000000000000000000000000000000000000000000000000000000000000000000000000000000000000000000010000000000000000000000",
      "type": "0x2",
      "transactionHash": "0x67f0a3bdaa7fb7f265f243843f8bb0dddaff495c209442fc01c8daae9d520178",
      "transactionIndex": "0x0",
      "blockHash": "0xc45e12983c8b23279cf3941e2a17e7c2debb0310100b5b2ffaa6f5083066b6ba",
      "blockNumber": "0x1a860877",
      "gasUsed": "0xfba1",
      "effectiveGasPrice": "0x3ade840c",
      "blobGasPrice": "0x1",
      "from": "0xf39fd6e51aad88f6f4ce6ab8827279cfffb92266",
      "to": "0x1a44076050125825900e736c501f859c50fe728c",
      "contractAddress": null
    },
    {
      "status": "0x1",
      "cumulativeGasUsed": "0x21f8f",
      "logs": [
        {
          "address": "0x975bcd720be66659e3eb3c0e4f1866a3020e493a",
          "topics": [
            "0x82118522aa536ac0e96cc5c689407ae42b89d592aa133890a01f1509842f5081"
          ],
          "data": "0x0000000000000000000000001adabe4941e0f662976dc94b9c7e2050b544566400000000000000000000000000000000000000000000000000000000000075950000000000000000000000000000000000000000000000000000000000000060000000000000000000000000000000000000000000000000000000000000002000000000000000000000000000000000000000000000000000000000000000020000000000000000000000000000000000000000000000000000000000000000000000000000000000000000000000000000000000000000000000000000000000000000000000000000000000000000000000000000000000000000000000c0000000000000000000000000000000000000000000000000000000000000012000000000000000000000000000000000000000000000000000000000000000020000000000000000000000002f55c492897526677c5b68fb199ea31e2c126416000000000000000000000000a7b5189bca84cd304d8553977c7c614329750d990000000000000000000000000000000000000000000000000000000000000000",
          "blockHash": "0xc4f46a566736fbf1f16f5d3d9a21c4e338e44629ab08f08985650966ba25e900",
          "blockNumber": "0x1a860878",
          "blockTimestamp": "0x69c218f5",
          "transactionHash": "0x51904dea8959cb775abb3805c3b438b8ca48e9c147cf37ef7a58b88f3dfeb98c",
          "transactionIndex": "0x0",
          "logIndex": "0x0",
          "removed": false
        }
      ],
      "logsBloom": "0x00000000000000000000000000000000000000000000000000000000000000000000000000000000000000000000000000000000000400000000000000000000000000000000000000000000000000000000000000000000002000000000000000000000000800000000000000000000000000000000000000000000000000000000000000000000000000000000000000000000000000000000000000000000000000000000000000000002000000000000000000000000000000000000008000000000000000000000000000000000000000000000000000000000000000000000000000000000000000000000000000000000000000000000000000000010",
      "type": "0x2",
      "transactionHash": "0x51904dea8959cb775abb3805c3b438b8ca48e9c147cf37ef7a58b88f3dfeb98c",
      "transactionIndex": "0x0",
      "blockHash": "0xc4f46a566736fbf1f16f5d3d9a21c4e338e44629ab08f08985650966ba25e900",
      "blockNumber": "0x1a860878",
      "gasUsed": "0x21f8f",
      "effectiveGasPrice": "0x3adc7e96",
      "blobGasPrice": "0x1",
      "from": "0xf39fd6e51aad88f6f4ce6ab8827279cfffb92266",
      "to": "0x1a44076050125825900e736c501f859c50fe728c",
      "contractAddress": null
    },
    {
      "status": "0x1",
      "cumulativeGasUsed": "0x21e93",
      "logs": [
        {
          "address": "0x7b9e184e07a6ee1ac23eae0fe8d6be2f663f05e6",
          "topics": [
            "0x82118522aa536ac0e96cc5c689407ae42b89d592aa133890a01f1509842f5081"
          ],
          "data": "0x0000000000000000000000001adabe4941e0f662976dc94b9c7e2050b544566400000000000000000000000000000000000000000000000000000000000075950000000000000000000000000000000000000000000000000000000000000060000000000000000000000000000000000000000000000000000000000000002000000000000000000000000000000000000000000000000000000000000000020000000000000000000000000000000000000000000000000000000000000000000000000000000000000000000000000000000000000000000000000000000000000000000000000000000000000000000000000000000000000000000000c0000000000000000000000000000000000000000000000000000000000000012000000000000000000000000000000000000000000000000000000000000000020000000000000000000000002f55c492897526677c5b68fb199ea31e2c126416000000000000000000000000a7b5189bca84cd304d8553977c7c614329750d990000000000000000000000000000000000000000000000000000000000000000",
          "blockHash": "0x431b295d784d8657a835cd11d9e588494b2111d0d24ced6f9f50c373ec8bfa83",
          "blockNumber": "0x1a860879",
          "blockTimestamp": "0x69c218f5",
          "transactionHash": "0x41faadc627b4cfe2b5102b90ed66b3243cc0f9572a34fc4ee92875b8944b8fed",
          "transactionIndex": "0x0",
          "logIndex": "0x0",
          "removed": false
        }
      ],
      "logsBloom": "0x00000000000020000000000000000000000000000000000000000000000000000000000000000000000000000000000000000000000000000000000000000000000000000000000000000000000000020000000000000000002000000000000000000000000000000000000000000000000000000000008000000000000000000000000000000000000000000000000000000000000000000000000000000000000000000000000000000002000000000000000000000000000000000000000000000000000000000000000000000000000000000000000000000000000000000000000000000000000000000000000000000000000000000000000000000010",
      "type": "0x2",
      "transactionHash": "0x41faadc627b4cfe2b5102b90ed66b3243cc0f9572a34fc4ee92875b8944b8fed",
      "transactionIndex": "0x0",
      "blockHash": "0x431b295d784d8657a835cd11d9e588494b2111d0d24ced6f9f50c373ec8bfa83",
      "blockNumber": "0x1a860879",
      "gasUsed": "0x21e93",
      "effectiveGasPrice": "0x3adab9cf",
      "blobGasPrice": "0x1",
      "from": "0xf39fd6e51aad88f6f4ce6ab8827279cfffb92266",
      "to": "0x1a44076050125825900e736c501f859c50fe728c",
      "contractAddress": null
    },
    {
      "status": "0x1",
      "cumulativeGasUsed": "0x9753",
      "logs": [
        {
          "address": "0x1a44076050125825900e736c501f859c50fe728c",
          "topics": [
            "0x6ee10e9ed4d6ce9742703a498707862f4b00f1396a87195eb93267b3d7983981"
          ],
          "data": "0x0000000000000000000000001adabe4941e0f662976dc94b9c7e2050b5445664000000000000000000000000cb343bf07e72548349f506593336b6cb698ad6da",
          "blockHash": "0x0a3ef3b04bdf0c6dfe79526b124b87cabe8c996077f9b65305941c8301eeabd8",
          "blockNumber": "0x1a86087a",
          "blockTimestamp": "0x69c218f5",
          "transactionHash": "0xe79c18fc4a8a6e1faf11db0696a27ec46ac4e64a4dc1f393947fbf17f1961f37",
          "transactionIndex": "0x0",
          "logIndex": "0x0",
          "removed": false
        }
      ],
      "logsBloom": "0x00000000000000000000000000000000000000000000000000800000001000000000000000000000000000000000000000000002000000000000000000000000000000000000000000000000000000000000000000000000000000000000000000000000000000000000000000000000000000000010000000000000000000000000000000000000000000000000000000000000000000000000000000000000000000000000000000000000000000000000000000000000000000000000000400000000000000000000000000000000000000000000000000000000000000000000000000000000000000000000000000000000010000000000000000000000",
      "type": "0x2",
      "transactionHash": "0xe79c18fc4a8a6e1faf11db0696a27ec46ac4e64a4dc1f393947fbf17f1961f37",
      "transactionIndex": "0x0",
      "blockHash": "0x0a3ef3b04bdf0c6dfe79526b124b87cabe8c996077f9b65305941c8301eeabd8",
      "blockNumber": "0x1a86087a",
      "gasUsed": "0x9753",
      "effectiveGasPrice": "0x3ad92da1",
      "blobGasPrice": "0x1",
      "from": "0xf39fd6e51aad88f6f4ce6ab8827279cfffb92266",
      "to": "0x1adabe4941e0f662976dc94b9c7e2050b5445664",
      "contractAddress": null
    }
  ],
  "libraries": [],
  "pending": [],
  "returns": {},
  "timestamp": 1774328053348,
  "chain": 42161,
  "commit": "0874d6a"
}