{
  "transactions": [
    {
      "hash": "0xe316807c2bfb479008b1b3eb386886a71e06ca75e8245a47454f3706bc71cf80",
      "transactionType": "CALL",
      "contractName": null,
      "contractAddress": "0x737db1540f5d0ae639897122c18403898cac9191",
      "function": "grantRole(bytes32,address)",
      "arguments": [
        "0x0000000000000000000000000000000000000000000000000000000000000000",
        "0xfcad670592a3b24869C0b51a6c6FDED4F95D6975"
      ],
      "transaction": {
        "from": "0x4c51ce7b2546e18449fbe16738a8d55bc195a4dd",
        "to": "0x737db1540f5d0ae639897122c18403898cac9191",
        "gas": "0x12fa5",
        "value": "0x0",
        "input": "0x2f2ff15d0000000000000000000000000000000000000000000000000000000000000000000000000000000000000000fcad670592a3b24869c0b51a6c6fded4f95d6975",
        "nonce": "0x1d4",
        "chainId": "0x1"
      },
      "additionalContracts": [],
      "isFixedGasLimit": false
    },
    {
      "hash": "0x3071dc74c3379c53651786f7bf4811ab354f6a83d4e566fe890b34ee2b84def0",
      "transactionType": "CALL",
      "contractName": null,
      "contractAddress": "0x737db1540f5d0ae639897122c18403898cac9191",
      "function": "grantRole(bytes32,address)",
      "arguments": [
        "0xbbfb55d933c2bfa638763473275b1d84c4418e58d26cf9d2cd5758237756d9f0",
        "0xfcad670592a3b24869C0b51a6c6FDED4F95D6975"
      ],
      "transaction": {
        "from": "0x4c51ce7b2546e18449fbe16738a8d55bc195a4dd",
        "to": "0x737db1540f5d0ae639897122c18403898cac9191",
        "gas": "0x131b7",
        "value": "0x0",
        "input": "0x2f2ff15dbbfb55d933c2bfa638763473275b1d84c4418e58d26cf9d2cd5758237756d9f0000000000000000000000000fcad670592a3b24869c0b51a6c6fded4f95d6975",
        "nonce": "0x1d5",
        "chainId": "0x1"
      },
      "additionalContracts": [],
      "isFixedGasLimit": false
    },
    {
      "hash": "0x16fe51bcc3ecf8c27d37f3432beb75ac2c3c97ba3c9611ca07ca833eb0234ece",
      "transactionType": "CALL",
      "contractName": null,
      "contractAddress": "0x737db1540f5d0ae639897122c18403898cac9191",
      "function": "renounceRole(bytes32,address)",
      "arguments": [
        "0xbbfb55d933c2bfa638763473275b1d84c4418e58d26cf9d2cd5758237756d9f0",
        "0x4C51Ce7B2546e18449fbE16738A8D55bc195a4dd"
      ],
      "transaction": {
        "from": "0x4c51ce7b2546e18449fbe16738a8d55bc195a4dd",
        "to": "0x737db1540f5d0ae639897122c18403898cac9191",
        "gas": "0xa1fe",
        "value": "0x0",
        "input": "0x36568abebbfb55d933c2bfa638763473275b1d84c4418e58d26cf9d2cd5758237756d9f00000000000000000000000004c51ce7b2546e18449fbe16738a8d55bc195a4dd",
        "nonce": "0x1d6",
        "chainId": "0x1"
      },
      "additionalContracts": [],
      "isFixedGasLimit": false
    },
    {
      "hash": "0x5d16a86de14c1288cb7a2ec297cbc55813893f285cd9ae9505de3fc161b87045",
      "transactionType": "CALL",
      "contractName": null,
      "contractAddress": "0x737db1540f5d0ae639897122c18403898cac9191",
      "function": "renounceRole(bytes32,address)",
      "arguments": [
        "0x0000000000000000000000000000000000000000000000000000000000000000",
        "0x4C51Ce7B2546e18449fbE16738A8D55bc195a4dd"
      ],
      "transaction": {
        "from": "0x4c51ce7b2546e18449fbe16738a8d55bc195a4dd",
        "to": "0x737db1540f5d0ae639897122c18403898cac9191",
        "gas": "0x9feb",
        "value": "0x0",
        "input": "0x36568abe00000000000000000000000000000000000000000000000000000000000000000000000000000000000000004c51ce7b2546e18449fbe16738a8d55bc195a4dd",
        "nonce": "0x1d7",
        "chainId": "0x1"
      },
      "additionalContracts": [],
      "isFixedGasLimit": false
    },
    {
      "hash": "0x55b2a9e48577cffca85dcab0c0ac82eb4137b52c60e13153c78c4c75dff5d53c",
      "transactionType": "CALL",
      "contractName": null,
      "contractAddress": "0x737db1540f5d0ae639897122c18403898cac9191",
      "function": "transferOwnership(address)",
      "arguments": [
        "0xfcad670592a3b24869C0b51a6c6FDED4F95D6975"
      ],
      "transaction": {
        "from": "0x4c51ce7b2546e18449fbe16738a8d55bc195a4dd",
        "to": "0x737db1540f5d0ae639897122c18403898cac9191",
        "gas": "0xb525",
        "value": "0x0",
        "input": "0xf2fde38b000000000000000000000000fcad670592a3b24869c0b51a6c6fded4f95d6975",
        "nonce": "0x1d8",
        "chainId": "0x1"
      },
      "additionalContracts": [],
      "isFixedGasLimit": false
    }
  ],
  "receipts": [
    {
      "status": "0x1",
      "cumulativeGasUsed": "0x1080a4e",
      "logs": [
        {
          "address": "0x737db1540f5d0ae639897122c18403898cac9191",
          "topics": [
            "0x2f8788117e7eff1d82e926ec794901d17c78024a50270940304540a733656f0d",
            "0x0000000000000000000000000000000000000000000000000000000000000000",
            "0x000000000000000000000000fcad670592a3b24869c0b51a6c6fded4f95d6975",
            "0x0000000000000000000000004c51ce7b2546e18449fbe16738a8d55bc195a4dd"
          ],
          "data": "0x",
          "blockHash": "0x6e40ff8c3faba39e327735d352a5a3a3bba454f171017d1359c99692302055a7",
          "blockNumber": "0x17dd9a0",
          "blockTimestamp": "0x69f92c03",
          "transactionHash": "0x5d16a86de14c1288cb7a2ec297cbc55813893f285cd9ae9505de3fc161b87045",
          "transactionIndex": "0x94",
          "logIndex": "0x230",
          "removed": false
        }
      ],
      "logsBloom": "0x00040004000000000000000000000000000000000000000000000000000000000000000002000000000000000000002000000000000000000200000000000000000000000000000000000000002000000000000000000008000000000000000800000000020000000000000000000800000000000000000000000000000000000000000000000000000000000000000000000000000000000000000000000000000000000000000000000000000020000000000000000000001000000000000000000000000000000000000000000000000000000000000100000000000020000000020000000000000000000000000000000000000000000000000000000000",
      "type": "0x2",
      "transactionHash": "0x5d16a86de14c1288cb7a2ec297cbc55813893f285cd9ae9505de3fc161b87045",
      "transactionIndex": "0x94",
      "blockHash": "0x6e40ff8c3faba39e327735d352a5a3a3bba454f171017d1359c99692302055a7",
      "blockNumber": "0x17dd9a0",
      "gasUsed": "0xdbd6",
      "effectiveGasPrice": "0xad04a2b",
      "from": "0x4c51ce7b2546e18449fbe16738a8d55bc195a4dd",
      "to": "0x737db1540f5d0ae639897122c18403898cac9191",
      "contractAddress": null
    },
    {
      "status": "0x1",
      "cumulativeGasUsed": "0x227d536",
      "logs": [
        {
          "address": "0x737db1540f5d0ae639897122c18403898cac9191",
          "topics": [
            "0x2f8788117e7eff1d82e926ec794901d17c78024a50270940304540a733656f0d",
            "0xbbfb55d933c2bfa638763473275b1d84c4418e58d26cf9d2cd5758237756d9f0",
            "0x000000000000000000000000fcad670592a3b24869c0b51a6c6fded4f95d6975",
            "0x0000000000000000000000004c51ce7b2546e18449fbe16738a8d55bc195a4dd"
          ],
          "data": "0x",
          "blockHash": "0xef92561749efa690416a2c6166d124bfbae2554ed7d0fc107e6ace757cef89d9",
          "blockNumber": "0x17dd9a2",
          "blockTimestamp": "0x69f92c1b",
          "transactionHash": "0xe316807c2bfb479008b1b3eb386886a71e06ca75e8245a47454f3706bc71cf80",
          "transactionIndex": "0x1a8",
          "logIndex": "0x241",
          "removed": false
        }
      ],
      "logsBloom": "0x00040004000000000000000000000000000000000000000000000000020000000000000002000000000000000000002000000000000000000200000000000000000000000000000000000000002000000000000000000008000000000000000800000000000000000000000000000000000000000000000000000000000000000000000000000000000000000000000000000000000000000000000000000000000200000000000000000400000020000000000000000000001000000000000000000000000000000000000000000000000000000000000100000000000000000000020000000000000000000000000000000000000000000000000000000000",
      "type": "0x2",
      "transactionHash": "0xe316807c2bfb479008b1b3eb386886a71e06ca75e8245a47454f3706bc71cf80",
      "transactionIndex": "0x1a8",
      "blockHash": "0xef92561749efa690416a2c6166d124bfbae2554ed7d0fc107e6ace757cef89d9",
      "blockNumber": "0x17dd9a2",
      "gasUsed": "0xdd56",
      "effectiveGasPrice": "0x9bcbdbe",
      "from": "0x4c51ce7b2546e18449fbe16738a8d55bc195a4dd",
      "to": "0x737db1540f5d0ae639897122c18403898cac9191",
      "contractAddress": null
    },
    {
      "status": "0x1",
      "cumulativeGasUsed": "0xaad6a4",
      "logs": [
        {
          "address": "0x737db1540f5d0ae639897122c18403898cac9191",
          "topics": [
            "0xf6391f5c32d9c69d2a47ea670b442974b53935d1edc7fd64eb21e047a839171b",
            "0xbbfb55d933c2bfa638763473275b1d84c4418e58d26cf9d2cd5758237756d9f0",
            "0x0000000000000000000000004c51ce7b2546e18449fbe16738a8d55bc195a4dd",
            "0x0000000000000000000000004c51ce7b2546e18449fbe16738a8d55bc195a4dd"
          ],
          "data": "0x",
          "blockHash": "0x31db141b1af875d32b51e980b458e0e390e400a7a6a6432d25bc6d146cd38c57",
          "blockNumber": "0x17dd9a4",
          "blockTimestamp": "0x69f92c33",
          "transactionHash": "0x16fe51bcc3ecf8c27d37f3432beb75ac2c3c97ba3c9611ca07ca833eb0234ece",
          "transactionIndex": "0xb0",
          "logIndex": "0xf7",
          "removed": false
        }
      ],
      "logsBloom": "0x00040000000000000000000000000000000000000000000000000000020000000000000002000000000000000000002000200000000000000200000000000000000000000000000000000000002000000000000000000000000000000000000040000000000000000000000000000000000000000000000000000000000000000000000040000000000000000000000000000000000000000000000000000000000200000000000000000400000020000000000000000000000000000000000000000000000000000000000000000000000000000000000000000000000000000000000000000000000000000000000000000000000000000000000000000000",
      "type": "0x2",
      "transactionHash": "0x16fe51bcc3ecf8c27d37f3432beb75ac2c3c97ba3c9611ca07ca833eb0234ece",
      "transactionIndex": "0xb0",
      "blockHash": "0x31db141b1af875d32b51e980b458e0e390e400a7a6a6432d25bc6d146cd38c57",
      "blockNumber": "0x17dd9a4",
      "gasUsed": "0x7548",
      "effectiveGasPrice": "0xa8c66ff",
      "from": "0x4c51ce7b2546e18449fbe16738a8d55bc195a4dd",
      "to": "0x737db1540f5d0ae639897122c18403898cac9191",
      "contractAddress": null
    },
    {
      "status": "0x1",
      "cumulativeGasUsed": "0x124f8d9",
      "logs": [
        {
          "address": "0x737db1540f5d0ae639897122c18403898cac9191",
          "topics": [
            "0xf6391f5c32d9c69d2a47ea670b442974b53935d1edc7fd64eb21e047a839171b",
            "0x0000000000000000000000000000000000000000000000000000000000000000",
            "0x0000000000000000000000004c51ce7b2546e18449fbe16738a8d55bc195a4dd",
            "0x0000000000000000000000004c51ce7b2546e18449fbe16738a8d55bc195a4dd"
          ],
          "data": "0x",
          "blockHash": "0x31db141b1af875d32b51e980b458e0e390e400a7a6a6432d25bc6d146cd38c57",
          "blockNumber": "0x17dd9a4",
          "blockTimestamp": "0x69f92c33",
          "transactionHash": "0x3071dc74c3379c53651786f7bf4811ab354f6a83d4e566fe890b34ee2b84def0",
          "transactionIndex": "0xf6",
          "logIndex": "0x2ab",
          "removed": false
        }
      ],
      "logsBloom": "0x00040000000000000000000000000000000000000000000000000000000000000000000002000000000000000000002000200000000000000200000000000000000000000000000000000000002000000000000000000000000000000000000040000000020000000000000000000800000000000000000000000000000000000000000040000000000000000000000000000000000000000000000000000000000000000000000000000000000020000000000000000000000000000000000000000000000000000000000000000000000000000000000000000000000020000000000000000000000000000000000000000000000000000000000000000000",
      "type": "0x2",
      "transactionHash": "0x3071dc74c3379c53651786f7bf4811ab354f6a83d4e566fe890b34ee2b84def0",
      "transactionIndex": "0xf6",
      "blockHash": "0x31db141b1af875d32b51e980b458e0e390e400a7a6a6432d25bc6d146cd38c57",
      "blockNumber": "0x17dd9a4",
      "gasUsed": "0x73c8",
      "effectiveGasPrice": "0xa8c66ff",
      "from": "0x4c51ce7b2546e18449fbe16738a8d55bc195a4dd",
      "to": "0x737db1540f5d0ae639897122c18403898cac9191",
      "contractAddress": null
    },
    {
      "status": "0x1",
      "cumulativeGasUsed": "0xbcbabd",
      "logs": [
        {
          "address": "0x737db1540f5d0ae639897122c18403898cac9191",
          "topics": [
            "0x8be0079c531659141344cd1fd0a4f28419497f9722a3daafe3b4186f6b6457e0",
            "0x0000000000000000000000004c51ce7b2546e18449fbe16738a8d55bc195a4dd",
            "0x000000000000000000000000fcad670592a3b24869c0b51a6c6fded4f95d6975"
          ],
          "data": "0x",
          "blockHash": "0xdd792f0d8c526d5b54b127ae700702aa1f129c55476c94cdc124df086265bb53",
          "blockNumber": "0x17dd9a5",
          "blockTimestamp": "0x69f92c3f",
          "transactionHash": "0x55b2a9e48577cffca85dcab0c0ac82eb4137b52c60e13153c78c4c75dff5d53c",
          "transactionIndex": "0x9e",
          "logIndex": "0x149",
          "removed": false
        }
      ],
      "logsBloom": "0x00040000000000000000000000000000000000000000000000800000000000000000000002000000000000000000002000000000000000000200000000000000000000000000000000000000002000000001000000000008000000000000000800000000000000000000000000000000000000000000000000000000000000400000000000000000000000000000000000000000000000000000000000000000000000000000000000000000000020000000000000000000000000000000000000000000000000000000000000000000000000000000000000000000000000000000020000000000000000000000000000000000000000000000000000000000",
      "type": "0x2",
      "transactionHash": "0x55b2a9e48577cffca85dcab0c0ac82eb4137b52c60e13153c78c4c75dff5d53c",
      "transactionIndex": "0x9e",
      "blockHash": "0xdd792f0d8c526d5b54b127ae700702aa1f129c55476c94cdc124df086265bb53",
      "blockNumber": "0x17dd9a5",
      "gasUsed": "0x8326",
      "effectiveGasPrice": "0xa1452b7",
      "from": "0x4c51ce7b2546e18449fbe16738a8d55bc195a4dd",
      "to": "0x737db1540f5d0ae639897122c18403898cac9191",
      "contractAddress": null
    }
  ],
  "libraries": [],
  "pending": [],
  "returns": {},
  "timestamp": 1777937473302,
  "chain": 1,
  "commit": "ecc2c71"
}