{
  "transactions": [
    {
      "hash": "0xe35b1c7ae6409fbed8f0840e7ecad483af3d95f0112aca402e27f49b36aba184",
      "transactionType": "CALL",
      "contractName": null,
      "contractAddress": "0x92e092b5e18aeb5b6c951f0ccb20f49f97081757",
      "function": "setPeer(uint32,bytes32)",
      "arguments": [
        "30110",
        "0x0000000000000000000000001adabe4941e0f662976dc94b9c7e2050b5445664"
      ],
      "transaction": {
        "from": "0xf39fd6e51aad88f6f4ce6ab8827279cfffb92266",
        "to": "0x92e092b5e18aeb5b6c951f0ccb20f49f97081757",
        "gas": "0x12b76",
        "value": "0x0",
        "input": "0x3400288b000000000000000000000000000000000000000000000000000000000000759e0000000000000000000000001adabe4941e0f662976dc94b9c7e2050b5445664",
        "nonce": "0x17d6",
        "chainId": "0x1"
      },
      "additionalContracts": [],
      "isFixedGasLimit": false
    },
    {
      "hash": "0xd90d9a93cf924c96958e18640a45a4db3489b6e26258d80892f66189c9815e00",
      "transactionType": "CALL",
      "contractName": null,
      "contractAddress": "0x1a44076050125825900e736c501f859c50fe728c",
      "function": "setReceiveLibrary(address,uint32,address,uint256)",
      "arguments": [
        "0x92e092B5E18aeb5B6c951f0cCb20F49F97081757",
        "30110",
        "0xc02Ab410f0734EFa3F14628780e6e695156024C2",
        "0"
      ],
      "transaction": {
        "from": "0xf39fd6e51aad88f6f4ce6ab8827279cfffb92266",
        "to": "0x1a44076050125825900e736c501f859c50fe728c",
        "gas": "0x17001",
        "value": "0x0",
        "input": "0x6a14d71500000000000000000000000092e092b5e18aeb5b6c951f0ccb20f49f97081757000000000000000000000000000000000000000000000000000000000000759e000000000000000000000000c02ab410f0734efa3f14628780e6e695156024c20000000000000000000000000000000000000000000000000000000000000000",
        "nonce": "0x17d7",
        "chainId": "0x1"
      },
      "additionalContracts": [],
      "isFixedGasLimit": false
    },
    {
      "hash": "0x42aeb209e59ce0ed8d5d472479acf222341b1eaff2db2c6ab494f294358b8f1a",
      "transactionType": "CALL",
      "contractName": null,
      "contractAddress": "0x1a44076050125825900e736c501f859c50fe728c",
      "function": "setConfig(address,address,(uint32,uint32,bytes)[])",
      "arguments": [
        "0x92e092B5E18aeb5B6c951f0cCb20F49F97081757",
        "0xbB2Ea70C9E858123480642Cf96acbcCE1372dCe1",
        "[(30110, 2, 0x0000000000000000000000000000000000000000000000000000000000000020000000000000000000000000000000000000000000000000000000000000002000000000000000000000000000000000000000000000000000000000000000020000000000000000000000000000000000000000000000000000000000000000000000000000000000000000000000000000000000000000000000000000000000000000000000000000000000000000000000000000000000000000000000c000000000000000000000000000000000000000000000000000000000000001200000000000000000000000000000000000000000000000000000000000000002000000000000000000000000589dedbd617e0cbcb916a9223f4d1300c294236b000000000000000000000000a59ba433ac34d2927232918ef5b2eaafcf130ba50000000000000000000000000000000000000000000000000000000000000000)]"
      ],
      "transaction": {
        "from": "0xf39fd6e51aad88f6f4ce6ab8827279cfffb92266",
        "to": "0x1a44076050125825900e736c501f859c50fe728c",
        "gas": "0x31ae2",
        "value": "0x0",
        "input": "0x6dbd9f9000000000000000000000000092e092b5e18aeb5b6c951f0ccb20f49f97081757000000000000000000000000bb2ea70c9e858123480642cf96acbcce1372dce1000000000000000000000000000000000000000000000000000000000000006000000000000000000000000000000000000000000000000000000000000000010000000000000000000000000000000000000000000000000000000000000020000000000000000000000000000000000000000000000000000000000000759e0000000000000000000000000000000000000000000000000000000000000002000000000000000000000000000000000000000000000000000000000000006000000000000000000000000000000000000000000000000000000000000001600000000000000000000000000000000000000000000000000000000000000020000000000000000000000000000000000000000000000000000000000000002000000000000000000000000000000000000000000000000000000000000000020000000000000000000000000000000000000000000000000000000000000000000000000000000000000000000000000000000000000000000000000000000000000000000000000000000000000000000000000000000000000000000000c000000000000000000000000000000000000000000000000000000000000001200000000000000000000000000000000000000000000000000000000000000002000000000000000000000000589dedbd617e0cbcb916a9223f4d1300c294236b000000000000000000000000a59ba433ac34d2927232918ef5b2eaafcf130ba50000000000000000000000000000000000000000000000000000000000000000",
        "nonce": "0x17d8",
        "chainId": "0x1"
      },
      "additionalContracts": [],
      "isFixedGasLimit": false
    },
    {
      "hash": "0x88eb627d0844b2f08203e750ddbc299c02db1c6433e847291898ee8c112ebc12",
      "transactionType": "CALL",
      "contractName": null,
      "contractAddress": "0x1a44076050125825900e736c501f859c50fe728c",
      "function": "setConfig(address,address,(uint32,uint32,bytes)[])",
      "arguments": [
        "0x92e092B5E18aeb5B6c951f0cCb20F49F97081757",
        "0xc02Ab410f0734EFa3F14628780e6e695156024C2",
        "[(30110, 2, 0x0000000000000000000000000000000000000000000000000000000000000020000000000000000000000000000000000000000000000000000000000000002000000000000000000000000000000000000000000000000000000000000000020000000000000000000000000000000000000000000000000000000000000000000000000000000000000000000000000000000000000000000000000000000000000000000000000000000000000000000000000000000000000000000000c000000000000000000000000000000000000000000000000000000000000001200000000000000000000000000000000000000000000000000000000000000002000000000000000000000000589dedbd617e0cbcb916a9223f4d1300c294236b000000000000000000000000a59ba433ac34d2927232918ef5b2eaafcf130ba50000000000000000000000000000000000000000000000000000000000000000)]"
      ],
      "transaction": {
        "from": "0xf39fd6e51aad88f6f4ce6ab8827279cfffb92266",
        "to": "0x1a44076050125825900e736c501f859c50fe728c",
        "gas": "0x2ed5d",
        "value": "0x0",
        "input": "0x6dbd9f9000000000000000000000000092e092b5e18aeb5b6c951f0ccb20f49f97081757000000000000000000000000c02ab410f0734efa3f14628780e6e695156024c2000000000000000000000000000000000000000000000000000000000000006000000000000000000000000000000000000000000000000000000000000000010000000000000000000000000000000000000000000000000000000000000020000000000000000000000000000000000000000000000000000000000000759e0000000000000000000000000000000000000000000000000000000000000002000000000000000000000000000000000000000000000000000000000000006000000000000000000000000000000000000000000000000000000000000001600000000000000000000000000000000000000000000000000000000000000020000000000000000000000000000000000000000000000000000000000000002000000000000000000000000000000000000000000000000000000000000000020000000000000000000000000000000000000000000000000000000000000000000000000000000000000000000000000000000000000000000000000000000000000000000000000000000000000000000000000000000000000000000000c000000000000000000000000000000000000000000000000000000000000001200000000000000000000000000000000000000000000000000000000000000002000000000000000000000000589dedbd617e0cbcb916a9223f4d1300c294236b000000000000000000000000a59ba433ac34d2927232918ef5b2eaafcf130ba50000000000000000000000000000000000000000000000000000000000000000",
        "nonce": "0x17d9",
        "chainId": "0x1"
      },
      "additionalContracts": [],
      "isFixedGasLimit": false
    },
    {
      "hash": "0xdd856c9339f28fba2182e1d6ed6c1eb7404a8d4b642c74da74c6e20f0b651d7d",
      "transactionType": "CALL",
      "contractName": null,
      "contractAddress": "0x92e092b5e18aeb5b6c951f0ccb20f49f97081757",
      "function": "setDelegate(address)",
      "arguments": [
        "0xfcad670592a3b24869C0b51a6c6FDED4F95D6975"
      ],
      "transaction": {
        "from": "0xf39fd6e51aad88f6f4ce6ab8827279cfffb92266",
        "to": "0x92e092b5e18aeb5b6c951f0ccb20f49f97081757",
        "gas": "0xdde4",
        "value": "0x0",
        "input": "0xca5eb5e1000000000000000000000000fcad670592a3b24869c0b51a6c6fded4f95d6975",
        "nonce": "0x17da",
        "chainId": "0x1"
      },
      "additionalContracts": [],
      "isFixedGasLimit": false
    }
  ],
  "receipts": [
    {
      "status": "0x1",
      "cumulativeGasUsed": "0xccc3",
      "logs": [
        {
          "address": "0x92e092b5e18aeb5b6c951f0ccb20f49f97081757",
          "topics": [
            "0x238399d427b947898edb290f5ff0f9109849b1c3ba196a42e35f00c50a54b98b"
          ],
          "data": "0x000000000000000000000000000000000000000000000000000000000000759e0000000000000000000000001adabe4941e0f662976dc94b9c7e2050b5445664",
          "blockHash": "0x384efcd2fe381a0d75307a1dc0db51120e73f94bd71b007d93cbc747c2e6b17e",
          "blockNumber": "0x1794225",
          "blockTimestamp": "0x69c218d8",
          "transactionHash": "0xe35b1c7ae6409fbed8f0840e7ecad483af3d95f0112aca402e27f49b36aba184",
          "transactionIndex": "0x0",
          "logIndex": "0x0",
          "removed": false
        }
      ],
      "logsBloom": "0x00000000000000000000000000000100000000000000000000000200000000000000080000000000000000000000000000000000000000000800000000000000000000000000000000000000000000000000000000000000000000000000000000000000000000000000000000000000000000000000000000000000000000000000000000000000000000000000000000000000000000000000000000000000000000000000000000000000000000000000000000000000000002000000000000000000000000000000000000000000000000000000000000040000000000000000000000000000000000000000000000000000000000000000000000000000",
      "type": "0x2",
      "transactionHash": "0xe35b1c7ae6409fbed8f0840e7ecad483af3d95f0112aca402e27f49b36aba184",
      "transactionIndex": "0x0",
      "blockHash": "0x384efcd2fe381a0d75307a1dc0db51120e73f94bd71b007d93cbc747c2e6b17e",
      "blockNumber": "0x1794225",
      "gasUsed": "0xccc3",
      "effectiveGasPrice": "0x12e5bc9",
      "blobGasPrice": "0x1",
      "from": "0xf39fd6e51aad88f6f4ce6ab8827279cfffb92266",
      "to": "0x92e092b5e18aeb5b6c951f0ccb20f49f97081757",
      "contractAddress": null
    },
    {
      "status": "0x1",
      "cumulativeGasUsed": "0xfba1",
      "logs": [
        {
          "address": "0x1a44076050125825900e736c501f859c50fe728c",
          "topics": [
            "0xcd6f92f5ac6185a5acfa02c92090746cec64d777269cbcd0ed031e396657a1c2"
          ],
          "data": "0x00000000000000000000000092e092b5e18aeb5b6c951f0ccb20f49f97081757000000000000000000000000000000000000000000000000000000000000759e000000000000000000000000c02ab410f0734efa3f14628780e6e695156024c2",
          "blockHash": "0xcee304711ff4defb4777445e81cc13d969a8c61898a6064f37a49c743387840b",
          "blockNumber": "0x1794226",
          "blockTimestamp": "0x69c218d8",
          "transactionHash": "0xd90d9a93cf924c96958e18640a45a4db3489b6e26258d80892f66189c9815e00",
          "transactionIndex": "0x0",
          "logIndex": "0x0",
          "removed": false
        },
        {
          "address": "0x1a44076050125825900e736c501f859c50fe728c",
          "topics": [
            "0x4e0a5bbfa0c11a64effb1ada324b5437a17272e1aed9320398715ef71bb20928"
          ],
          "data": "0x00000000000000000000000092e092b5e18aeb5b6c951f0ccb20f49f97081757000000000000000000000000000000000000000000000000000000000000759e00000000000000000000000000000000000000000000000000000000000000000000000000000000000000000000000000000000000000000000000000000000",
          "blockHash": "0xcee304711ff4defb4777445e81cc13d969a8c61898a6064f37a49c743387840b",
          "blockNumber": "0x1794226",
          "blockTimestamp": "0x69c218d8",
          "transactionHash": "0xd90d9a93cf924c96958e18640a45a4db3489b6e26258d80892f66189c9815e00",
          "transactionIndex": "0x0",
          "logIndex": "0x1",
          "removed": false
        }
      ],
      "logsBloom": "0x00000000000000000000020800000000000000000000000000000000001000020400000000000000000000000000000000000000000000000000000000000000000000000000000000000000000000000000000000800000000000000000000000000000000000000000000000000000000000000010000000000000000000100000000000000000000000000000000000000000000000000000000000000000000000000000000000000000000000000000000000000000000000000000000000000000000000000000000000000000000000000000000000000000000000000000000000000000000000000000000000000000010000000000000000000000",
      "type": "0x2",
      "transactionHash": "0xd90d9a93cf924c96958e18640a45a4db3489b6e26258d80892f66189c9815e00",
      "transactionIndex": "0x0",
      "blockHash": "0xcee304711ff4defb4777445e81cc13d969a8c61898a6064f37a49c743387840b",
      "blockNumber": "0x1794226",
      "gasUsed": "0xfba1",
      "effectiveGasPrice": "0x109c5ad",
      "blobGasPrice": "0x1",
      "from": "0xf39fd6e51aad88f6f4ce6ab8827279cfffb92266",
      "to": "0x1a44076050125825900e736c501f859c50fe728c",
      "contractAddress": null
    },
    {
      "status": "0x1",
      "cumulativeGasUsed": "0x21f83",
      "logs": [
        {
          "address": "0xbb2ea70c9e858123480642cf96acbcce1372dce1",
          "topics": [
            "0x82118522aa536ac0e96cc5c689407ae42b89d592aa133890a01f1509842f5081"
          ],
          "data": "0x00000000000000000000000092e092b5e18aeb5b6c951f0ccb20f49f97081757000000000000000000000000000000000000000000000000000000000000759e0000000000000000000000000000000000000000000000000000000000000060000000000000000000000000000000000000000000000000000000000000002000000000000000000000000000000000000000000000000000000000000000020000000000000000000000000000000000000000000000000000000000000000000000000000000000000000000000000000000000000000000000000000000000000000000000000000000000000000000000000000000000000000000000c000000000000000000000000000000000000000000000000000000000000001200000000000000000000000000000000000000000000000000000000000000002000000000000000000000000589dedbd617e0cbcb916a9223f4d1300c294236b000000000000000000000000a59ba433ac34d2927232918ef5b2eaafcf130ba50000000000000000000000000000000000000000000000000000000000000000",
          "blockHash": "0x6190e79f9b4bcc990ced2da24cbd78cbfe20661772d19b105df83e73326d5205",
          "blockNumber": "0x1794227",
          "blockTimestamp": "0x69c218d8",
          "transactionHash": "0x88eb627d0844b2f08203e750ddbc299c02db1c6433e847291898ee8c112ebc12",
          "transactionIndex": "0x0",
          "logIndex": "0x0",
          "removed": false
        }
      ],
      "logsBloom": "0x00000000000000000000000000000000000000000000000000000000000000000400000000000000000000000000000000000000000000000000000000000000000000000000000000000000000000000000200000000000002000000000000000000000000000000000000000000000000000000000000000000000000000000000000000000000001000000000000000000000000000000000000000000000000000000000000000000002000000000000000000000000000000000000000000000000000000000000000000000000000000000000000000000000000000000000000000000000000000000000000000000000000000000000000000000010",
      "type": "0x2",
      "transactionHash": "0x88eb627d0844b2f08203e750ddbc299c02db1c6433e847291898ee8c112ebc12",
      "transactionIndex": "0x0",
      "blockHash": "0x6190e79f9b4bcc990ced2da24cbd78cbfe20661772d19b105df83e73326d5205",
      "blockNumber": "0x1794227",
      "gasUsed": "0x21f83",
      "effectiveGasPrice": "0xe9c392",
      "blobGasPrice": "0x1",
      "from": "0xf39fd6e51aad88f6f4ce6ab8827279cfffb92266",
      "to": "0x1a44076050125825900e736c501f859c50fe728c",
      "contractAddress": null
    },
    {
      "status": "0x1",
      "cumulativeGasUsed": "0x21e87",
      "logs": [
        {
          "address": "0xc02ab410f0734efa3f14628780e6e695156024c2",
          "topics": [
            "0x82118522aa536ac0e96cc5c689407ae42b89d592aa133890a01f1509842f5081"
          ],
          "data": "0x00000000000000000000000092e092b5e18aeb5b6c951f0ccb20f49f97081757000000000000000000000000000000000000000000000000000000000000759e0000000000000000000000000000000000000000000000000000000000000060000000000000000000000000000000000000000000000000000000000000002000000000000000000000000000000000000000000000000000000000000000020000000000000000000000000000000000000000000000000000000000000000000000000000000000000000000000000000000000000000000000000000000000000000000000000000000000000000000000000000000000000000000000c000000000000000000000000000000000000000000000000000000000000001200000000000000000000000000000000000000000000000000000000000000002000000000000000000000000589dedbd617e0cbcb916a9223f4d1300c294236b000000000000000000000000a59ba433ac34d2927232918ef5b2eaafcf130ba50000000000000000000000000000000000000000000000000000000000000000",
          "blockHash": "0x4aa5a94a5c9ea7d161630600a7d3d647df8b7b82245d90c1b6056445d9017eef",
          "blockNumber": "0x1794228",
          "blockTimestamp": "0x69c218d8",
          "transactionHash": "0xdd856c9339f28fba2182e1d6ed6c1eb7404a8d4b642c74da74c6e20f0b651d7d",
          "transactionIndex": "0x0",
          "logIndex": "0x0",
          "removed": false
        }
      ],
      "logsBloom": "0x00000000000000000000000000000000000000000000000000000000000000000000000000000004000000000000000000000000000000000000000000000000000000000000000000000000000000000000000000000000002000000000000000000000000000000000000000000000000000000000000000000000000000000000000100000000000010000000000000000000000000000000000000000000000000000000000000000002000000000000000000000000000000000000000000000000000000000000000000000000000000000000000000000000000000000000000000000000000000000000000000000000000000000000000000000010",
      "type": "0x2",
      "transactionHash": "0xdd856c9339f28fba2182e1d6ed6c1eb7404a8d4b642c74da74c6e20f0b651d7d",
      "transactionIndex": "0x0",
      "blockHash": "0x4aa5a94a5c9ea7d161630600a7d3d647df8b7b82245d90c1b6056445d9017eef",
      "blockNumber": "0x1794228",
      "gasUsed": "0x21e87",
      "effectiveGasPrice": "0xcdd16e",
      "blobGasPrice": "0x1",
      "from": "0xf39fd6e51aad88f6f4ce6ab8827279cfffb92266",
      "to": "0x1a44076050125825900e736c501f859c50fe728c",
      "contractAddress": null
    },
    {
      "status": "0x1",
      "cumulativeGasUsed": "0x2b640",
      "logs": [
        {
          "address": "0x1a44076050125825900e736c501f859c50fe728c",
          "topics": [
            "0x6ee10e9ed4d6ce9742703a498707862f4b00f1396a87195eb93267b3d7983981"
          ],
          "data": "0x00000000000000000000000092e092b5e18aeb5b6c951f0ccb20f49f97081757000000000000000000000000fcad670592a3b24869c0b51a6c6fded4f95d6975",
          "blockHash": "0x4aa5a94a5c9ea7d161630600a7d3d647df8b7b82245d90c1b6056445d9017eef",
          "blockNumber": "0x1794228",
          "blockTimestamp": "0x69c218d8",
          "transactionHash": "0x42aeb209e59ce0ed8d5d472479acf222341b1eaff2db2c6ab494f294358b8f1a",
          "transactionIndex": "0x1",
          "logIndex": "0x1",
          "removed": false
        }
      ],
      "logsBloom": "0x00000000000000000000000000000000000000000000000000800000001000000000000000000000000000000000000000000002000000000000000000000000000000000000000000000000000000000000000000000000000000000000000000000000000000000000000000000000000000000010000000000000000000000000000000000000000000000000000000000000000000000000000000000000000000000000000000000000000000000000000000000000000000000000000400000000000000000000000000000000000000000000000000000000000000000000000000000000000000000000000000000000010000000000000000000000",
      "type": "0x2",
      "transactionHash": "0x42aeb209e59ce0ed8d5d472479acf222341b1eaff2db2c6ab494f294358b8f1a",
      "transactionIndex": "0x1",
      "blockHash": "0x4aa5a94a5c9ea7d161630600a7d3d647df8b7b82245d90c1b6056445d9017eef",
      "blockNumber": "0x1794228",
      "gasUsed": "0x97b9",
      "effectiveGasPrice": "0xcdd16e",
      "blobGasPrice": "0x1",
      "from": "0xf39fd6e51aad88f6f4ce6ab8827279cfffb92266",
      "to": "0x92e092b5e18aeb5b6c951f0ccb20f49f97081757",
      "contractAddress": null
    }
  ],
  "libraries": [],
  "pending": [],
  "returns": {},
  "timestamp": 1774328036957,
  "chain": 1,
  "commit": "0874d6a"
}