{
  "transactions": [
    {
      "hash": "0x71f29aabd2c817bec26b6e6f4eb68266d1504022a6a1f12626c49a457cb0955e",
      "transactionType": "CALL",
      "contractName": null,
      "contractAddress": "0x737db1540f5d0ae639897122c18403898cac9191",
      "function": "setDestination((uint32,bytes32,bytes,bool)[],uint256[])",
      "arguments": [
        "[(30365, 0x000000000000000000000000f2ebf8ef0a914487bf0cab0fc484f1f2316a4f33, 0x0003010011010000000000000000000000000007a120, true)]",
        "[50]"
      ],
      "transaction": {
        "from": "0x4c51ce7b2546e18449fbe16738a8d55bc195a4dd",
        "to": "0x737db1540f5d0ae639897122c18403898cac9191",
        "gas": "0x1eb44",
        "value": "0x0",
        "input": "0xf7b7526e0000000000000000000000000000000000000000000000000000000000000040000000000000000000000000000000000000000000000000000000000000014000000000000000000000000000000000000000000000000000000000000000010000000000000000000000000000000000000000000000000000000000000020000000000000000000000000000000000000000000000000000000000000769d000000000000000000000000f2ebf8ef0a914487bf0cab0fc484f1f2316a4f330000000000000000000000000000000000000000000000000000000000000080000000000000000000000000000000000000000000000000000000000000000100000000000000000000000000000000000000000000000000000000000000160003010011010000000000000000000000000007a1200000000000000000000000000000000000000000000000000000000000000000000000000000000000010000000000000000000000000000000000000000000000000000000000000032",
        "nonce": "0x1cd",
        "chainId": "0x1"
      },
      "additionalContracts": [],
      "isFixedGasLimit": false
    },
    {
      "hash": "0x69410f9db85b387b64628445b3a26935f306e8eebace24926ed6b71eaf349a02",
      "transactionType": "CALL",
      "contractName": null,
      "contractAddress": "0x1a44076050125825900e736c501f859c50fe728c",
      "function": "setReceiveLibrary(address,uint32,address,uint256)",
      "arguments": [
        "0x737DB1540f5d0aE639897122c18403898cAc9191",
        "30365",
        "0xc02Ab410f0734EFa3F14628780e6e695156024C2",
        "0"
      ],
      "transaction": {
        "from": "0x4c51ce7b2546e18449fbe16738a8d55bc195a4dd",
        "to": "0x1a44076050125825900e736c501f859c50fe728c",
        "gas": "0x17001",
        "value": "0x0",
        "input": "0x6a14d715000000000000000000000000737db1540f5d0ae639897122c18403898cac9191000000000000000000000000000000000000000000000000000000000000769d000000000000000000000000c02ab410f0734efa3f14628780e6e695156024c20000000000000000000000000000000000000000000000000000000000000000",
        "nonce": "0x1ce",
        "chainId": "0x1"
      },
      "additionalContracts": [],
      "isFixedGasLimit": false
    },
    {
      "hash": "0x66b5176f317697cdac4f571804747bf04776a8eb21beae6453ad22dc0806576a",
      "transactionType": "CALL",
      "contractName": null,
      "contractAddress": "0x1a44076050125825900e736c501f859c50fe728c",
      "function": "setConfig(address,address,(uint32,uint32,bytes)[])",
      "arguments": [
        "0x737DB1540f5d0aE639897122c18403898cAc9191",
        "0xbB2Ea70C9E858123480642Cf96acbcCE1372dCe1",
        "[(30365, 2, 0x0000000000000000000000000000000000000000000000000000000000000020000000000000000000000000000000000000000000000000000000000000002000000000000000000000000000000000000000000000000000000000000000030000000000000000000000000000000000000000000000000000000000000000000000000000000000000000000000000000000000000000000000000000000000000000000000000000000000000000000000000000000000000000000000c000000000000000000000000000000000000000000000000000000000000001400000000000000000000000000000000000000000000000000000000000000003000000000000000000000000589dedbd617e0cbcb916a9223f4d1300c294236b000000000000000000000000a4fe5a5b9a846458a70cd0748228aed3bf65c2cd000000000000000000000000a59ba433ac34d2927232918ef5b2eaafcf130ba50000000000000000000000000000000000000000000000000000000000000000)]"
      ],
      "transaction": {
        "from": "0x4c51ce7b2546e18449fbe16738a8d55bc195a4dd",
        "to": "0x1a44076050125825900e736c501f859c50fe728c",
        "gas": "0x3a056",
        "value": "0x0",
        "input": "0x6dbd9f90000000000000000000000000737db1540f5d0ae639897122c18403898cac9191000000000000000000000000bb2ea70c9e858123480642cf96acbcce1372dce1000000000000000000000000000000000000000000000000000000000000006000000000000000000000000000000000000000000000000000000000000000010000000000000000000000000000000000000000000000000000000000000020000000000000000000000000000000000000000000000000000000000000769d0000000000000000000000000000000000000000000000000000000000000002000000000000000000000000000000000000000000000000000000000000006000000000000000000000000000000000000000000000000000000000000001800000000000000000000000000000000000000000000000000000000000000020000000000000000000000000000000000000000000000000000000000000002000000000000000000000000000000000000000000000000000000000000000030000000000000000000000000000000000000000000000000000000000000000000000000000000000000000000000000000000000000000000000000000000000000000000000000000000000000000000000000000000000000000000000c000000000000000000000000000000000000000000000000000000000000001400000000000000000000000000000000000000000000000000000000000000003000000000000000000000000589dedbd617e0cbcb916a9223f4d1300c294236b000000000000000000000000a4fe5a5b9a846458a70cd0748228aed3bf65c2cd000000000000000000000000a59ba433ac34d2927232918ef5b2eaafcf130ba50000000000000000000000000000000000000000000000000000000000000000",
        "nonce": "0x1cf",
        "chainId": "0x1"
      },
      "additionalContracts": [],
      "isFixedGasLimit": false
    },
    {
      "hash": "0xb5fd82b07b1a4e4ae1754170a3959ef3049abf6b3de064308eb0e33665c139e6",
      "transactionType": "CALL",
      "contractName": null,
      "contractAddress": "0x1a44076050125825900e736c501f859c50fe728c",
      "function": "setConfig(address,address,(uint32,uint32,bytes)[])",
      "arguments": [
        "0x737DB1540f5d0aE639897122c18403898cAc9191",
        "0xc02Ab410f0734EFa3F14628780e6e695156024C2",
        "[(30365, 2, 0x0000000000000000000000000000000000000000000000000000000000000020000000000000000000000000000000000000000000000000000000000000002000000000000000000000000000000000000000000000000000000000000000030000000000000000000000000000000000000000000000000000000000000000000000000000000000000000000000000000000000000000000000000000000000000000000000000000000000000000000000000000000000000000000000c000000000000000000000000000000000000000000000000000000000000001400000000000000000000000000000000000000000000000000000000000000003000000000000000000000000589dedbd617e0cbcb916a9223f4d1300c294236b000000000000000000000000a4fe5a5b9a846458a70cd0748228aed3bf65c2cd000000000000000000000000a59ba433ac34d2927232918ef5b2eaafcf130ba50000000000000000000000000000000000000000000000000000000000000000)]"
      ],
      "transaction": {
        "from": "0x4c51ce7b2546e18449fbe16738a8d55bc195a4dd",
        "to": "0x1a44076050125825900e736c501f859c50fe728c",
        "gas": "0x36b6e",
        "value": "0x0",
        "input": "0x6dbd9f90000000000000000000000000737db1540f5d0ae639897122c18403898cac9191000000000000000000000000c02ab410f0734efa3f14628780e6e695156024c2000000000000000000000000000000000000000000000000000000000000006000000000000000000000000000000000000000000000000000000000000000010000000000000000000000000000000000000000000000000000000000000020000000000000000000000000000000000000000000000000000000000000769d0000000000000000000000000000000000000000000000000000000000000002000000000000000000000000000000000000000000000000000000000000006000000000000000000000000000000000000000000000000000000000000001800000000000000000000000000000000000000000000000000000000000000020000000000000000000000000000000000000000000000000000000000000002000000000000000000000000000000000000000000000000000000000000000030000000000000000000000000000000000000000000000000000000000000000000000000000000000000000000000000000000000000000000000000000000000000000000000000000000000000000000000000000000000000000000000c000000000000000000000000000000000000000000000000000000000000001400000000000000000000000000000000000000000000000000000000000000003000000000000000000000000589dedbd617e0cbcb916a9223f4d1300c294236b000000000000000000000000a4fe5a5b9a846458a70cd0748228aed3bf65c2cd000000000000000000000000a59ba433ac34d2927232918ef5b2eaafcf130ba50000000000000000000000000000000000000000000000000000000000000000",
        "nonce": "0x1d0",
        "chainId": "0x1"
      },
      "additionalContracts": [],
      "isFixedGasLimit": false
    },
    {
      "hash": "0x62162718b3ec23cf952a1c3823904e7620879ea211de87e9cedeba9740467ef7",
      "transactionType": "CALL",
      "contractName": null,
      "contractAddress": "0x737db1540f5d0ae639897122c18403898cac9191",
      "function": "setDelegate(address)",
      "arguments": [
        "0xfcad670592a3b24869C0b51a6c6FDED4F95D6975"
      ],
      "transaction": {
        "from": "0x4c51ce7b2546e18449fbe16738a8d55bc195a4dd",
        "to": "0x737db1540f5d0ae639897122c18403898cac9191",
        "gas": "0xd09a",
        "value": "0x0",
        "input": "0xca5eb5e1000000000000000000000000fcad670592a3b24869c0b51a6c6fded4f95d6975",
        "nonce": "0x1d1",
        "chainId": "0x1"
      },
      "additionalContracts": [],
      "isFixedGasLimit": false
    }
  ],
  "receipts": [
    {
      "status": "0x1",
      "cumulativeGasUsed": "0x211a07f",
      "logs": [
        {
          "address": "0x737db1540f5d0ae639897122c18403898cac9191",
          "topics": [
            "0x238399d427b947898edb290f5ff0f9109849b1c3ba196a42e35f00c50a54b98b"
          ],
          "data": "0x000000000000000000000000000000000000000000000000000000000000769d000000000000000000000000f2ebf8ef0a914487bf0cab0fc484f1f2316a4f33",
          "blockHash": "0xc97866adc4c8defb94f525a2b1c3ab08b036b1c91059e03c3d74d99cca60a5e2",
          "blockNumber": "0x17dcc39",
          "blockTimestamp": "0x69f88ab7",
          "transactionHash": "0xb5fd82b07b1a4e4ae1754170a3959ef3049abf6b3de064308eb0e33665c139e6",
          "transactionIndex": "0x126",
          "logIndex": "0x426",
          "removed": false
        },
        {
          "address": "0x737db1540f5d0ae639897122c18403898cac9191",
          "topics": [
            "0x858e7e5178a54a9943ab3d11e80bfa50fef361f4e9a1700fa6444cb879f4f8a2",
            "0x0000000000000000000000000000000000000000000000000000000000000032"
          ],
          "data": "0x000000000000000000000000000000000000000000000000000000000000769d000000000000000000000000f2ebf8ef0a914487bf0cab0fc484f1f2316a4f330000000000000000000000000000000000000000000000000000000000000080000000000000000000000000000000000000000000000000000000000000000100000000000000000000000000000000000000000000000000000000000000160003010011010000000000000000000000000007a12000000000000000000000",
          "blockHash": "0xc97866adc4c8defb94f525a2b1c3ab08b036b1c91059e03c3d74d99cca60a5e2",
          "blockNumber": "0x17dcc39",
          "blockTimestamp": "0x69f88ab7",
          "transactionHash": "0xb5fd82b07b1a4e4ae1754170a3959ef3049abf6b3de064308eb0e33665c139e6",
          "transactionIndex": "0x126",
          "logIndex": "0x427",
          "removed": false
        }
      ],
      "logsBloom": "0x00040000000000000000000000000000000000000000000000000000000000000002000002000000000000000000000000000000000000000800000000000000000000000000000000004000000000000000000000000000000000000000000000000000000000000000000000000000000000000000000000000000000000000000000000000000000000000000000000000000000000000000000000000000000000000000020000000000000020000000000040000000000002000000000000000000800000000000000000000000000000000000000000040000000800000000000000000000000000000000000000000000000000000000000000000000",
      "type": "0x2",
      "transactionHash": "0xb5fd82b07b1a4e4ae1754170a3959ef3049abf6b3de064308eb0e33665c139e6",
      "transactionIndex": "0x126",
      "blockHash": "0xc97866adc4c8defb94f525a2b1c3ab08b036b1c91059e03c3d74d99cca60a5e2",
      "blockNumber": "0x17dcc39",
      "gasUsed": "0x163ac",
      "effectiveGasPrice": "0x1768784b",
      "from": "0x4c51ce7b2546e18449fbe16738a8d55bc195a4dd",
      "to": "0x737db1540f5d0ae639897122c18403898cac9191",
      "contractAddress": null
    },
    {
      "status": "0x1",
      "cumulativeGasUsed": "0x1e0b135",
      "logs": [
        {
          "address": "0x1a44076050125825900e736c501f859c50fe728c",
          "topics": [
            "0xcd6f92f5ac6185a5acfa02c92090746cec64d777269cbcd0ed031e396657a1c2"
          ],
          "data": "0x000000000000000000000000737db1540f5d0ae639897122c18403898cac9191000000000000000000000000000000000000000000000000000000000000769d000000000000000000000000c02ab410f0734efa3f14628780e6e695156024c2",
          "blockHash": "0x203d896c8f86cb044cae4da35c684090b5ca1196a58c129796f5030be8a9356f",
          "blockNumber": "0x17dcc3a",
          "blockTimestamp": "0x69f88ac3",
          "transactionHash": "0x62162718b3ec23cf952a1c3823904e7620879ea211de87e9cedeba9740467ef7",
          "transactionIndex": "0x13b",
          "logIndex": "0x2cb",
          "removed": false
        },
        {
          "address": "0x1a44076050125825900e736c501f859c50fe728c",
          "topics": [
            "0x4e0a5bbfa0c11a64effb1ada324b5437a17272e1aed9320398715ef71bb20928"
          ],
          "data": "0x000000000000000000000000737db1540f5d0ae639897122c18403898cac9191000000000000000000000000000000000000000000000000000000000000769d00000000000000000000000000000000000000000000000000000000000000000000000000000000000000000000000000000000000000000000000000000000",
          "blockHash": "0x203d896c8f86cb044cae4da35c684090b5ca1196a58c129796f5030be8a9356f",
          "blockNumber": "0x17dcc3a",
          "blockTimestamp": "0x69f88ac3",
          "transactionHash": "0x62162718b3ec23cf952a1c3823904e7620879ea211de87e9cedeba9740467ef7",
          "transactionIndex": "0x13b",
          "logIndex": "0x2cc",
          "removed": false
        }
      ],
      "logsBloom": "0x00000000000000000000020800000000000000000000000000000000001000020400000000000000000000000000000000000000000000000000000000000000000000000000000000000000000000000000000000800000000000000000000000000000000000000000000000000000000000000010000000000000000000100000000000000000000000000000000000000000000000000000000000000000000000000000000000000000000000000000000000000000000000000000000000000000000000000000000000000000000000000000000000000000000000000000000000000000000000000000000000000000010000000000000000000000",
      "type": "0x2",
      "transactionHash": "0x62162718b3ec23cf952a1c3823904e7620879ea211de87e9cedeba9740467ef7",
      "transactionIndex": "0x13b",
      "blockHash": "0x203d896c8f86cb044cae4da35c684090b5ca1196a58c129796f5030be8a9356f",
      "blockNumber": "0x17dcc3a",
      "gasUsed": "0xfba1",
      "effectiveGasPrice": "0x18f9d21f",
      "from": "0x4c51ce7b2546e18449fbe16738a8d55bc195a4dd",
      "to": "0x1a44076050125825900e736c501f859c50fe728c",
      "contractAddress": null
    },
    {
      "status": "0x1",
      "cumulativeGasUsed": "0x171087d",
      "logs": [
        {
          "address": "0xbb2ea70c9e858123480642cf96acbcce1372dce1",
          "topics": [
            "0x82118522aa536ac0e96cc5c689407ae42b89d592aa133890a01f1509842f5081"
          ],
          "data": "0x000000000000000000000000737db1540f5d0ae639897122c18403898cac9191000000000000000000000000000000000000000000000000000000000000769d0000000000000000000000000000000000000000000000000000000000000060000000000000000000000000000000000000000000000000000000000000002000000000000000000000000000000000000000000000000000000000000000030000000000000000000000000000000000000000000000000000000000000000000000000000000000000000000000000000000000000000000000000000000000000000000000000000000000000000000000000000000000000000000000c000000000000000000000000000000000000000000000000000000000000001400000000000000000000000000000000000000000000000000000000000000003000000000000000000000000589dedbd617e0cbcb916a9223f4d1300c294236b000000000000000000000000a4fe5a5b9a846458a70cd0748228aed3bf65c2cd000000000000000000000000a59ba433ac34d2927232918ef5b2eaafcf130ba50000000000000000000000000000000000000000000000000000000000000000",
          "blockHash": "0x232a5e80db575e79085a3e31d8dc680c9ed0aa38a1d24d9d3d950e2acee31fc7",
          "blockNumber": "0x17dcc3c",
          "blockTimestamp": "0x69f88adb",
          "transactionHash": "0x71f29aabd2c817bec26b6e6f4eb68266d1504022a6a1f12626c49a457cb0955e",
          "transactionIndex": "0x12e",
          "logIndex": "0x24d",
          "removed": false
        }
      ],
      "logsBloom": "0x00000000000000000000000000000000000000000000000000000000000000000400000000000000000000000000000000000000000000000000000000000000000000000000000000000000000000000000200000000000002000000000000000000000000000000000000000000000000000000000000000000000000000000000000000000000001000000000000000000000000000000000000000000000000000000000000000000002000000000000000000000000000000000000000000000000000000000000000000000000000000000000000000000000000000000000000000000000000000000000000000000000000000000000000000000010",
      "type": "0x2",
      "transactionHash": "0x71f29aabd2c817bec26b6e6f4eb68266d1504022a6a1f12626c49a457cb0955e",
      "transactionIndex": "0x12e",
      "blockHash": "0x232a5e80db575e79085a3e31d8dc680c9ed0aa38a1d24d9d3d950e2acee31fc7",
      "blockNumber": "0x17dcc3c",
      "gasUsed": "0x27ac3",
      "effectiveGasPrice": "0x1898dd6d",
      "from": "0x4c51ce7b2546e18449fbe16738a8d55bc195a4dd",
      "to": "0x1a44076050125825900e736c501f859c50fe728c",
      "contractAddress": null
    },
    {
      "status": "0x1",
      "cumulativeGasUsed": "0x173824a",
      "logs": [
        {
          "address": "0xc02ab410f0734efa3f14628780e6e695156024c2",
          "topics": [
            "0x82118522aa536ac0e96cc5c689407ae42b89d592aa133890a01f1509842f5081"
          ],
          "data": "0x000000000000000000000000737db1540f5d0ae639897122c18403898cac9191000000000000000000000000000000000000000000000000000000000000769d0000000000000000000000000000000000000000000000000000000000000060000000000000000000000000000000000000000000000000000000000000002000000000000000000000000000000000000000000000000000000000000000030000000000000000000000000000000000000000000000000000000000000000000000000000000000000000000000000000000000000000000000000000000000000000000000000000000000000000000000000000000000000000000000c000000000000000000000000000000000000000000000000000000000000001400000000000000000000000000000000000000000000000000000000000000003000000000000000000000000589dedbd617e0cbcb916a9223f4d1300c294236b000000000000000000000000a4fe5a5b9a846458a70cd0748228aed3bf65c2cd000000000000000000000000a59ba433ac34d2927232918ef5b2eaafcf130ba50000000000000000000000000000000000000000000000000000000000000000",
          "blockHash": "0x232a5e80db575e79085a3e31d8dc680c9ed0aa38a1d24d9d3d950e2acee31fc7",
          "blockNumber": "0x17dcc3c",
          "blockTimestamp": "0x69f88adb",
          "transactionHash": "0x66b5176f317697cdac4f571804747bf04776a8eb21beae6453ad22dc0806576a",
          "transactionIndex": "0x12f",
          "logIndex": "0x24e",
          "removed": false
        }
      ],
      "logsBloom": "0x00000000000000000000000000000000000000000000000000000000000000000000000000000004000000000000000000000000000000000000000000000000000000000000000000000000000000000000000000000000002000000000000000000000000000000000000000000000000000000000000000000000000000000000000100000000000010000000000000000000000000000000000000000000000000000000000000000002000000000000000000000000000000000000000000000000000000000000000000000000000000000000000000000000000000000000000000000000000000000000000000000000000000000000000000000010",
      "type": "0x2",
      "transactionHash": "0x66b5176f317697cdac4f571804747bf04776a8eb21beae6453ad22dc0806576a",
      "transactionIndex": "0x12f",
      "blockHash": "0x232a5e80db575e79085a3e31d8dc680c9ed0aa38a1d24d9d3d950e2acee31fc7",
      "blockNumber": "0x17dcc3c",
      "gasUsed": "0x279cd",
      "effectiveGasPrice": "0x1898dd6d",
      "from": "0x4c51ce7b2546e18449fbe16738a8d55bc195a4dd",
      "to": "0x1a44076050125825900e736c501f859c50fe728c",
      "contractAddress": null
    },
    {
      "status": "0x1",
      "cumulativeGasUsed": "0x174b365",
      "logs": [
        {
          "address": "0x1a44076050125825900e736c501f859c50fe728c",
          "topics": [
            "0x6ee10e9ed4d6ce9742703a498707862f4b00f1396a87195eb93267b3d7983981"
          ],
          "data": "0x000000000000000000000000737db1540f5d0ae639897122c18403898cac9191000000000000000000000000fcad670592a3b24869c0b51a6c6fded4f95d6975",
          "blockHash": "0x7ffc06e15e04516fb7dd45e7c688993f5f693fd736d0655447f1db7dd6ae4c8f",
          "blockNumber": "0x17dcc3e",
          "blockTimestamp": "0x69f88af3",
          "transactionHash": "0x69410f9db85b387b64628445b3a26935f306e8eebace24926ed6b71eaf349a02",
          "transactionIndex": "0xd2",
          "logIndex": "0x179",
          "removed": false
        }
      ],
      "logsBloom": "0x00000000000000000000000000000000000000000000000000800000001000000000000000000000000000000000000000000002000000000000000000000000000000000000000000000000000000000000000000000000000000000000000000000000000000000000000000000000000000000010000000000000000000000000000000000000000000000000000000000000000000000000000000000000000000000000000000000000000000000000000000000000000000000000000400000000000000000000000000000000000000000000000000000000000000000000000000000000000000000000000000000000010000000000000000000000",
      "type": "0x2",
      "transactionHash": "0x69410f9db85b387b64628445b3a26935f306e8eebace24926ed6b71eaf349a02",
      "transactionIndex": "0xd2",
      "blockHash": "0x7ffc06e15e04516fb7dd45e7c688993f5f693fd736d0655447f1db7dd6ae4c8f",
      "blockNumber": "0x17dcc3e",
      "gasUsed": "0x9707",
      "effectiveGasPrice": "0x1833ee69",
      "from": "0x4c51ce7b2546e18449fbe16738a8d55bc195a4dd",
      "to": "0x737db1540f5d0ae639897122c18403898cac9191",
      "contractAddress": null
    }
  ],
  "libraries": [],
  "pending": [],
  "returns": {},
  "timestamp": 1777896181290,
  "chain": 1,
  "commit": "51614ba"
}